{
  "contractName": "Election",
  "abi": [
    {
      "inputs": [
        {
          "internalType": "uint256",
          "name": "_maxCandidates",
          "type": "uint256"
        }
      ],
      "payable": false,
      "stateMutability": "nonpayable",
      "type": "constructor"
    },
    {
      "anonymous": false,
      "inputs": [
        {
          "indexed": true,
          "internalType": "uint256",
          "name": "_candidateId",
          "type": "uint256"
        },
        {
          "indexed": false,
          "internalType": "string",
          "name": "_name",
          "type": "string"
        },
        {
          "indexed": false,
          "internalType": "uint256",
          "name": "_votes",
          "type": "uint256"
        }
      ],
      "name": "NewCandidate",
      "type": "event"
    },
    {
      "anonymous": false,
      "inputs": [
        {
          "indexed": true,
          "internalType": "uint256",
          "name": "_candidateId",
          "type": "uint256"
        }
      ],
      "name": "VoteCast",
      "type": "event"
    },
    {
      "constant": true,
      "inputs": [
        {
          "internalType": "uint256",
          "name": "",
          "type": "uint256"
        }
      ],
      "name": "candidates",
      "outputs": [
        {
          "internalType": "uint256",
          "name": "id",
          "type": "uint256"
        },
        {
          "internalType": "string",
          "name": "name",
          "type": "string"
        },
        {
          "internalType": "uint256",
          "name": "votes",
          "type": "uint256"
        }
      ],
      "payable": false,
      "stateMutability": "view",
      "type": "function"
    },
    {
      "constant": true,
      "inputs": [],
      "name": "candidatesCount",
      "outputs": [
        {
          "internalType": "uint256",
          "name": "",
          "type": "uint256"
        }
      ],
      "payable": false,
      "stateMutability": "view",
      "type": "function"
    },
    {
      "constant": true,
      "inputs": [
        {
          "internalType": "address",
          "name": "",
          "type": "address"
        }
      ],
      "name": "voters",
      "outputs": [
        {
          "internalType": "bool",
          "name": "",
          "type": "bool"
        }
      ],
      "payable": false,
      "stateMutability": "view",
      "type": "function"
    },
    {
      "constant": false,
      "inputs": [
        {
          "internalType": "string",
          "name": "name",
          "type": "string"
        }
      ],
      "name": "addCandidate",
      "outputs": [],
      "payable": false,
      "stateMutability": "nonpayable",
      "type": "function"
    },
    {
      "constant": false,
      "inputs": [
        {
          "internalType": "uint256",
          "name": "id",
          "type": "uint256"
        }
      ],
      "name": "castVote",
      "outputs": [],
      "payable": false,
      "stateMutability": "nonpayable",
      "type": "function"
    },
    {
      "constant": false,
      "inputs": [],
      "name": "endVoting",
      "outputs": [],
      "payable": false,
      "stateMutability": "nonpayable",
      "type": "function"
    },
    {
      "constant": true,
      "inputs": [
        {
          "internalType": "uint256",
          "name": "id",
          "type": "uint256"
        }
      ],
      "name": "getCandidate",
      "outputs": [
        {
          "internalType": "uint256",
          "name": "",
          "type": "uint256"
        },
        {
          "internalType": "string",
          "name": "",
          "type": "string"
        },
        {
          "internalType": "uint256",
          "name": "",
          "type": "uint256"
        }
      ],
      "payable": false,
      "stateMutability": "view",
      "type": "function"
    },
    {
      "constant": true,
      "inputs": [
        {
          "internalType": "uint256",
          "name": "id",
          "type": "uint256"
        }
      ],
      "name": "getName",
      "outputs": [
        {
          "internalType": "string",
          "name": "",
          "type": "string"
        }
      ],
      "payable": false,
      "stateMutability": "view",
      "type": "function"
    },
    {
      "constant": true,
      "inputs": [
        {
          "internalType": "uint256",
          "name": "id",
          "type": "uint256"
        }
      ],
      "name": "getVotes",
      "outputs": [
        {
          "internalType": "uint256",
          "name": "",
          "type": "uint256"
        }
      ],
      "payable": false,
      "stateMutability": "view",
      "type": "function"
    }
  ],
  "bytecode": "0x608060405234801561001057600080fd5b50604051610c8a380380610c8a8339818101604052602081101561003357600080fd5b8101908080519060200190929190505050600281101561005257600080fd5b806003819055506000600460006101000a81548160ff02191690831515021790555033600460016101000a81548173ffffffffffffffffffffffffffffffffffffffff021916908373ffffffffffffffffffffffffffffffffffffffff16021790555050610bc5806100c56000396000f3fe608060405234801561001057600080fd5b50600436106100935760003560e01c8063462e91ec11610066578063462e91ec1461024e5780636b8ff57414610309578063a3ec138d146103b0578063c3403ddf1461040c578063ff9810991461041657610093565b80632d35a8a2146100985780633477ee2e146100b657806335b8e8201461016b5780633eb76b9c14610220575b600080fd5b6100a0610458565b6040518082815260200191505060405180910390f35b6100e2600480360360208110156100cc57600080fd5b810190808035906020019092919050505061045e565b6040518084815260200180602001838152602001828103825284818151815260200191508051906020019080838360005b8381101561012e578082015181840152602081019050610113565b50505050905090810190601f16801561015b5780820380516001836020036101000a031916815260200191505b5094505050505060405180910390f35b6101976004803603602081101561018157600080fd5b8101908080359060200190929190505050610520565b6040518084815260200180602001838152602001828103825284818151815260200191508051906020019080838360005b838110156101e35780820151818401526020810190506101c8565b50505050905090810190601f1680156102105780820380516001836020036101000a031916815260200191505b5094505050505060405180910390f35b61024c6004803603602081101561023657600080fd5b810190808035906020019092919050505061063d565b005b6103076004803603602081101561026457600080fd5b810190808035906020019064010000000081111561028157600080fd5b82018360208201111561029357600080fd5b803590602001918460018302840111640100000000831117156102b557600080fd5b91908080601f016020809104026020016040519081016040528093929190818152602001838380828437600081840152601f19601f82011690508083019250505050505050919291929050505061075a565b005b6103356004803603602081101561031f57600080fd5b8101908080359060200190929190505050610968565b6040518080602001828103825283818151815260200191508051906020019080838360005b8381101561037557808201518184015260208101905061035a565b50505050905090810190601f1680156103a25780820380516001836020036101000a031916815260200191505b509250505060405180910390f35b6103f2600480360360208110156103c657600080fd5b81019080803573ffffffffffffffffffffffffffffffffffffffff169060200190929190505050610a3a565b604051808215151515815260200191505060405180910390f35b610414610a5a565b005b6104426004803603602081101561042c57600080fd5b8101908080359060200190929190505050610a91565b6040518082815260200191505060405180910390f35b60025481565b6000602052806000526040600020600091509050806000015490806001018054600181600116156101000203166002900480601f0160208091040260200160405190810160405280929190818152602001828054600181600116156101000203166002900480156105105780601f106104e557610100808354040283529160200191610510565b820191906000526020600020905b8154815290600101906020018083116104f357829003601f168201915b5050505050908060020154905083565b600060606000808410158015610537575060025484105b61054057600080fd5b610548610aca565b60008086815260200190815260200160002060405180606001604052908160008201548152602001600182018054600181600116156101000203166002900480601f0160208091040260200160405190810160405280929190818152602001828054600181600116156101000203166002900480156106085780601f106105dd57610100808354040283529160200191610608565b820191906000526020600020905b8154815290600101906020018083116105eb57829003601f168201915b505050505081526020016002820154815250509050806000015181602001518260400151819150935093509350509193909250565b600460009054906101000a900460ff161561065757600080fd5b600160003373ffffffffffffffffffffffffffffffffffffffff1673ffffffffffffffffffffffffffffffffffffffff16815260200190815260200160002060009054906101000a900460ff16156106ae57600080fd5b60018060003373ffffffffffffffffffffffffffffffffffffffff1673ffffffffffffffffffffffffffffffffffffffff16815260200190815260200160002060006101000a81548160ff02191690831515021790555060008082815260200190815260200160002060020160008154809291906001019190505550807f9593d9bd30eff4872ec3bab10360ad82eaac80651801e68f47f0674c38415c3d60405160405180910390a250565b600460009054906101000a900460ff161561077457600080fd5b600460019054906101000a900473ffffffffffffffffffffffffffffffffffffffff1673ffffffffffffffffffffffffffffffffffffffff163373ffffffffffffffffffffffffffffffffffffffff16146107ce57600080fd5b600354600254106107de57600080fd5b6002600081548092919060010191905055506040518060600160405280600254815260200182815260200160008152506000806002548152602001908152602001600020600082015181600001556020820151816001019080519060200190610848929190610aeb565b50604082015181600201559050506000806001600254038152602001908152602001600020600001547fc410be4345e71ac0463fbd06a18054660b31d53638030fc2592588eba12b1d5c600080600160025403815260200190815260200160002060010160008060016002540381526020019081526020016000206002015460405180806020018381526020018281038252848181546001816001161561010002031660029004815260200191508054600181600116156101000203166002900480156109565780601f1061092b57610100808354040283529160200191610956565b820191906000526020600020905b81548152906001019060200180831161093957829003601f168201915b5050935050505060405180910390a250565b60606000821015801561097c575060025482105b61098557600080fd5b6000808381526020019081526020016000206001018054600181600116156101000203166002900480601f016020809104026020016040519081016040528092919081815260200182805460018160011615610100020316600290048015610a2e5780601f10610a0357610100808354040283529160200191610a2e565b820191906000526020600020905b815481529060010190602001808311610a1157829003601f168201915b50505050509050919050565b60016020528060005260406000206000915054906101000a900460ff1681565b600460009054906101000a900460ff1615610a7457600080fd5b6001600460006101000a81548160ff021916908315150217905550565b6000808210158015610aa4575060025482105b610aad57600080fd5b600080838152602001908152602001600020600201549050919050565b60405180606001604052806000815260200160608152602001600081525090565b828054600181600116156101000203166002900490600052602060002090601f016020900481019282601f10610b2c57805160ff1916838001178555610b5a565b82800160010185558215610b5a579182015b82811115610b59578251825591602001919060010190610b3e565b5b509050610b679190610b6b565b5090565b610b8d91905b80821115610b89576000816000905550600101610b71565b5090565b9056fea265627a7a72315820d028ff3a65f3db2e0a27f7dcbe206889398faad2250901033b7cc8ac62d8a36464736f6c634300050c0032",
  "source": "// Step 1: Declare a pragma statment for the compiler\r\npragma solidity >= 0.4.22 <0.7.0;\r\n\r\n// Step 2: Define the contract itself\r\ncontract Election {\r\n    \r\n    // Step 3: Declare a struct to contain candidates\r\n    struct Candidate {\r\n        uint id;\r\n        string name;\r\n        uint votes;\r\n    }\r\n    \r\n    // Step 4: Declare all necessary contract variables\r\n    mapping(uint=>Candidate) public candidates;\r\n    mapping(address=>bool) public voters;\r\n    uint public candidatesCount;\r\n    uint maxCandidates;\r\n    bool ended;\r\n    address owner;\r\n    \r\n    // Step 5: Declare a constructor for instantiating the contract\r\n    constructor (\r\n        uint _maxCandidates\r\n    ) public {\r\n        require(_maxCandidates >= 2);\r\n        maxCandidates = _maxCandidates;\r\n        ended = false;\r\n        owner = msg.sender;\r\n    }\r\n    \r\n    // Step 6: Declare an event for notfifying that a candidate was added\r\n    event NewCandidate (\r\n        uint indexed _candidateId,\r\n        string _name,\r\n        uint _votes\r\n    );\r\n    \r\n    // Step 7: Declare an event for notifying that a \r\n    event VoteCast (\r\n        uint indexed _candidateId\r\n    );\r\n    \r\n    // Step 8: Declare a method for adding candidates to the contract\r\n    function addCandidate(string memory name) public {\r\n        require(!ended);\r\n        require(msg.sender == owner);\r\n        require(candidatesCount < maxCandidates);\r\n        \r\n        candidatesCount++;\r\n        candidates[candidatesCount] = Candidate(candidatesCount, name, 0);\r\n        emit NewCandidate(\r\n            candidates[candidatesCount-1].id, \r\n            candidates[candidatesCount-1].name, \r\n            candidates[candidatesCount-1].votes\r\n        );\r\n    }\r\n    \r\n    // Step 9: Declare a method allowing people to vote on candidates.\r\n    function castVote(uint id) public {\r\n        require(!ended);\r\n        require(!voters[msg.sender]);\r\n        \r\n        voters[msg.sender] = true;\r\n        candidates[id].votes++;\r\n        emit VoteCast(id);\r\n    }\r\n    \r\n    // Step 10: Declare a method for ending the voting process\r\n    function endVoting() public {\r\n        require(!ended);\r\n        ended = true;\r\n    }\r\n    \r\n    // Step 11: Declare a getter function for retrieving candidate information\r\n    function getCandidate(uint id) public view returns (uint, string memory, uint) {\r\n        require(id >= 0 && id < candidatesCount);\r\n        Candidate memory candidate = candidates[id];\r\n        return (candidate.id, candidate.name, candidate.votes);\r\n    }\r\n    \r\n    // Step 12: Declare a getter function for retrieving a candidates name\r\n    function getName(uint id) public view returns (string memory) {\r\n        require(id >= 0 && id < candidatesCount);\r\n        return candidates[id].name;\r\n    }\r\n    \r\n    // Step 13: Declare a getter function for getting a candidates votes\r\n    function getVotes(uint id) public view returns (uint) {\r\n        require(id >= 0 && id < candidatesCount);\r\n        return candidates[id].votes;\r\n    }\r\n}\r\n\r\n",
  "sourcePath": "C:/Users/chris/Git/ether-voting/complete/contracts/Election.sol",
  "compiler": {
    "name": "solc",
    "version": "0.5.12+commit.7709ece9.Emscripten.clang"
  },
  "schemaVersion": "3.0.19",
  "updatedAt": "2019-12-04T17:36:10.890Z",
  "networkType": "ethereum",
  "devdoc": {
    "methods": {}
  },
  "userdoc": {
    "methods": {}
  }
}